:0600000002006B020DC9B5
:03000B00020ED210
:03001300020E1CBE
:01001B0032B2
:03002300020D319A
:03002B000214E2DA
:01003300329A
:03003B00020E6F43
:03004300020CF2BA
:01004B003282
:03005300020D7D1E
:01005B003272
:030063000214E0A4
:03006600020EC3C4
:02006900E4733E
:0D006B0075812D1216EFE58260030200661C
:100078007923E94400601B7A0190186E78E775A02F
:1000880000E493F2A308B8000205A0D9F4DAF275E7
:02009800A0FFC7
:06009A00E478FFF6D8FD3A
:1000A0007800E84400600A799475A000E4F309D868
:1000B000FC7853E84400600C7901900094E4F0A3CC
:0400C000D8FCD9FA95
:0900C400751000751100751200A1
:0E00CE007808E4F608F608F608F6780C7600D6
:0200DC00C2025E
:0200DE00C2035B
:0300E000020066B5
:1000E4001205A775820712072175120022E5829076
:1000F400009CF0E511702D75825A1211CE90009C6F
:10010400E0FFF582C0071211CE90009BE0FEF5825D
:10011400C0061211CED006D007EE62078F821211EC
:10012400CE02125D75825A1212E890009CE0FFF52F
:1001340082C0071212E890009BE0FEF582C006120E
:1001440012E8D006D007EE62078F821212E802137B
:10015400777F007E007D01ED2494F582E43400F580
:1001640083E0FC62070DBD060040EC90009AE0FDC0
:10017400EFB505028010900095E0FF90009B74029B
:10018400F08F820200F1C006120F8BAB82AC83ADFC
:10019400F0FFD0069000E9EBF0ECA3F0EDA3F0EF54
:1001A400A3F0900096E0FF24F85003020273EF24BA
:1001B4000A83F582EF240C83F583E47375D0E90296
:1001C4001A3A5B6A0201010202020202900097E0FD
:1001D400F582C0061205C3E582D0066003020275EB
:1001E4007E03020275900097E0F582C00612063382
:1001F400E582D00660030202757E03020275900058
:1002040097E0FF900098E09000A0F08F82C0061263
:100214000753D006805B900097E0FF54F86002809B
:1002240003EF70047E048049EF42128F82C00612ED
:10023400070AD006803B900097E0FF54F8600280E4
:1002440003EF70047E048029EFF452128F82C006FB
:10025400120721D006801A900097E0F582C006129A
:100264000775D006800BC0061200E4D00680027E1B
:1002740004900095E0FF90009BEEF08F820200F165
:10028400120368902580E4F5F01210F9902580E4BB
:10029400F5F01212B1120F8BAC82AD83AEF0FF9069
:1002A40000E9ECF0EDA3F0EEA3F0EFA3F0221212BC
:1002B40061E582700712137BE5826059E5107013C3
:1002C400121261E58260067E007F0080047E017F59
:1002D400008E11E511700E121261E5826037121260
:1002E40077AF82800C12137BE5826029121391AFE1
:1002F40082E5107003BFA5B6AE100510EE2494F588
:1003040082E43400F583EFF07407B510A175100092
:100314001201558099120F8BAC82AD83AEF0FF9021
:1003240000E9E0F8A3E0F9A3E0FAA3E0FBECC3984A
:10033400FCED99FDEE9AFEEF9BFFC374889C741349
:100344009DE49EE49F501B1200E4120F8BAC82AD1F
:1003540083AEF0FF9000E9ECF0EDA3F0EEA3F0EF34
:03036400A3F022E1
:10036800120CAE120CD8120CC775DD0075D30075CF
:10037800D5002275D30074FC55D24402F5D2900002
:10038800EEE4F02230DE1190000AE0FFBF01099090
:10039800000BE0FF9000EDF022AF829000A1E0702A
:1003A80003F582227D007E009000EEE060240DBD02
:1003B80000010E900005C007C006C005121085D0C8
:1003C80005D006D007C3ED9450EE94C340DA758289
:1003D8000022BF013990004A7401F07E00BE080077
:1003E80050278E047D0074412CFCE43DFDEC240A6A
:1003F800FCED3400FDEE24EFF582E43400F583E0F3
:10040800FB8C828D83F00E80D475D309803FBF02A8
:100418003990004A7402F07F00BF040050278F050E
:100428007E0074412DFDE43EFEED240AFDEE34000D
:10043800FEEF24F7F582E43400F583E0FC8D828E2C
:1004480083F00F80D475D305800375D300AFE153D3
:10045800E1FD9000EE7401F053D2FC8FE17582014A
:1004680022AF82BF880040088F06EE2478FE8042C3
:10047800BF800040239000EFE0FD8F04EC2480F55E
:10048800F005F07401800225E0D5F0FBFC420590F0
:1004980000EFEDF07E00801AEF9016F393FE7003E4
:1004A800F58222EE30E70B9000EFE04402FFF053B4
:1004B800067F9000F1E0FFB50602805C9000F2E054
:1004C800FFB5060280529000F3E0FFB506028048AF
:1004D8009000F4E0FFB50602803E9000F5E0FFB51D
:1004E800060280349000F6E0FFB50602802A7F02FB
:1004F8007D02ED24EFFBE43400FC8B828C83E070FA
:10050800088B828C83EEF080080D8D07BD080040B3
:10051800E1BF0804758200227582011203A1758269
:100528000122AF82BF880040088F06EE2478FE8043
:1005380043BF800040249000EFE0FD8F04EC24804E
:10054800F5F005F07401800225E0D5F0FBF4FC52CB
:10055800059000EFEDF07E00801AEF9016F393FE01
:100568007003F58222EE30E70B9000EFE054FDFFB8
:10057800F053067F7F02EE6016EF24EFFCE43400B0
:10058800FD8C828D83E0B506068C828D83E4F00FA6
:10059800BF080040E17582011203A1758201227F24
:1005A80000BF0800500FEF24EFF582E43400F58314
:1005B800E4F00F80EC7582010203A1AF82BFE00076
:1005C8004026EF241840219000EFE0FE8F05ED242F
:1005D80020F5F005F07401800225E0D5F0FBFD421E
:1005E800069000EFEEF0803DEF6036EF24204031BA
:1005F8007E027D02ED24EFFBE43400FC8B828C83C9
:10060800E0FAB507028013EA70088B828C83EFF05A
:1006180080080D8D06BD080040DABE080875820006
:1006280022758200227582010203A1AF82BFE00019
:100638004027EF241840229000EFE0FE8F05ED24BC
:1006480020F5F005F07401800225E0D5F0FBF4FDFB
:1006580052069000EFEEF0802DEF6026EF24204048
:10066800217E02EE24EFFCE43400FD8C828D83E0D1
:10067800FBB507068C828D83E4F00EBE080040E3CC
:100688008004758200227582010203A1AF82C0072F
:10069800120469AE82D0078F82C00612052AD006DE
:1006A8008E8222AFF0AE83E58290009DF0EEA3F03B
:1006B800EFA3F090009DE0FDA3E0FEA3E0FF8D8294
:1006C8008E838FF01215E6FCA3AD82AE8390009D59
:1006D800EDF0EEA3F0EFA3F0ECFB60138B82C00704
:1006E800C006C005120694D005D006D00780CF906A
:1006F800009DEDF0EEA3F0EFA3F0229000EDE0F501
:100708008222AF829000F7E042079000F7EFF07581
:1007180082021203A175820122AF829000F7E0FEE7
:10072800EFF452069000F7EEF07582021203A175FD
:10073800820122AF82C00712070A90271012108583
:10074800D0078F8212072175820122AF829000F8AC
:10075800EFF09000A0E09000F9F07582021203A17A
:100768009000F8E4F09000F9F075820122AF8290D1
:1007780000FAEFF07582021203A19000FAE4F07516
:03078800820122C9
:10078C00AFDBBF08028003020B47900007E0FE7F3F
:10079C0000900006E0FD7C004FF513EC4EF5147F45
:1007AC0000900001E0F5159000FBE4F0900000E0F3
:1007BC00FE54606027900000E0FE5306607D00BE92
:1007CC002005BD0002800BBE400DBD000A7FFF025C
:1007DC000B497FFF020B497FFF020B49E51524F4FF
:1007EC005003020B43E515240B83F582E515241009
:1007FC0083F583E47325534313431D19432A474957
:10080C00490B090B0A0B09080B09090B0B90000388
:10081C00E0FEBE01028011BE02028016BE03028001
:10082C001BBE2202806380797516737517177F12B1
:10083C0080717516857517177F298067900002E007
:10084C00700875162A7517188034900002E0FEBEE9
:10085C0001087516607517188024900002E0FEBE22
:10086C00020875164A7517188014900002E0FEBE37
:10087C00030875162E75171880047FFF80258516C2
:10088C0082851783E493FF801A900002E0700E7546
:10089C0016AE75171790179EE493FF80067FFF80A6
:1008AC00027FFFBFFF03020B498F057E00C3ED954E
:1008BC0013EE951450048D138E14AD13AE14C3EDBA
:1008CC009408EE9400920040067B087C008004ABF8
:1008DC0013AC148B077C00C3EC9F50198C027B006B
:1008EC00EC2516F582E43517F583E493F98A828BAF
:1008FC0083F00C80E28F037C00EDC39BFDEE9CFE2D
:10090C008D138E14EF2516F516E43517F517020B1B
:10091C0049900002E0FE8E13751400020B49900002
:10092C00A1E0900000F0AD13AE14C3ED9401EE9471
:10093C00005003020B497F01020B49900002E0FEBC
:10094C009000A1F0020B49900000E0541F702F9012
:10095C000003E0FD7E00900002E0FC7B004206EB11
:10096C004205BE0114BD001190178CE493FE30E5D6
:10097C0003020B497FFF020B497FFF020B499000DA
:10098C0000E0FE53061F7D00BE0277BD0074900090
:10099C0004E0FEBE0102805FBE02028049BE03027B
:1009AC008033BE0402801DBE81028040BE82028064
:1009BC002ABE83028014BE844474BC55DE4402F506
:1009CC00DE020B4953DE73020B4974BC55D644024C
:1009DC00F5D6020B4953D673020B4974BC55D4445B
:1009EC0002F5D4020B4953D473020B4974BC55D293
:1009FC004402F5D2020B4953D273020B497FFF021A
:100A0C000B497FFF020B49900000E0541F702F90A0
:100A1C000003E0FD7E00900002E0FC7B004206EB50
:100A2C004205BE0114BD001190178CE493FE30E515
:100A3C0003020B497FFF020B497FFF020B49900019
:100A4C0000E0FE53061F7D00BE0205BD00028003C0
:100A5C00020B21900003E0FD7E00900002E0FC7B85
:100A6C00004206EB4205EE4D6003020B1D900005A3
:100A7C00E0FD7E00900004E0FC7B004206EB4205AA
:100A8C00BE0106BD0003020B11BE0205BD000280B3
:100A9C0060BE0305BD00028044BE0405BD0002809B
:100AAC0028BE8105BD00028052BE8205BD000280B9
:100ABC0036BE8305BD0002801ABE8451BD004E7443
:100ACC00BF55DE4403F5DE8074747F55DE440CF5AF
:100ADC00DE806A74BF55D64403F5D68060747F55AA
:100AEC00D6440CF5D6805674BF55D44403F5D48047
:100AFC004C747F55D4440CF5D4804274BF55D24409
:100B0C0003F5D28038747F55D2440CF5D27FFF8028
:100B1C002C7FFF80287FFF8024900000E4F0900061
:100B2C0001F0AD13AE14C3ED9402EE940040047FBB
:100B3C0002800AAF1380067FFF80027FFFBFFF0792
:100B4C007515FF75DCCF22EF24F740068FDD75DCC1
:100B5C00C02275DD0075DCC0227405B51502805D00
:100B6C007406B51566AE13AF14C3EE9408EF94007B
:100B7C00920140067C087D008004AC13AD147D000E
:100B8C00C3ED9C50198D027B00ED2516F582E435E2
:100B9C0017F583E493F98A828B83F00D80E28C0342
:100BAC007D00EEC39BFEEF9DFF8E138F14EC25167C
:100BBC00F516E43517F5178CDD63DC4022E5E354BC
:100BCC0080FFE5134FF5E375DC022275DD0075DC63
:100BDC00022275DD0043DC022220D903020C8AE5D7
:100BEC00D9540FFFADD95305307E00BD0005BE00B2
:100BFC0002801BBD1005BE00028035BD2005BE0065
:100C0C00028042BD3005BE00028059020C88EF24E0
:100C1C00FB5003020C88EF2F900C28738008800B7C
:100C2C00805A80588056120BDE805112038C804CF7
:100C3C00EF24FB4047EF2F900C4773803F803D80A3
:100C4C003B80398037EF24FB4032EF2F900C5C73E4
:100C5C008008800B802680248022120B65801D1258
:100C6C00037B8018EF24FB4013EF2F900C7B7380D9
:100C7C0008800980078005800312078CC2D930D800
:100C8C001475DC0275D21275E300C2DAC2D9C2D86F
:100C9C009000A1E4F010DA0122E5DA20E20375D825
:100CAC00FF2275E20053E27F43E22975E30053E231
:100CBC00BF53D1FB75D18043D1012243E10443E101
:100CCC000243E10143D81FD2EAD2AF227E007F005B
:100CDC008EEC8FED7E0A7F008EEE8FEF75D2127543
:060CEC00EAC075DC0222E3
:100CF200C021C0E0C0F0C082C083C007C006C005EA
:100D0200C004C003C002C001C000C0D075D0001230
:100D12000BE5D0D0D000D001D002D003D004D00552
:100D2200D006D007D083D082D0F0D0E0D02132C01C
:100D320021C0E0C0F0C082C083C007C006C005C0A9
:100D420004C003C002C001C000C0D075D0003098FA
:100D5200051213C4C298309905121404C299D0D056
:100D6200D000D001D002D003D004D005D006D007E5
:100D7200D083D082D0F0D0E0D02132C021C0E0C0F8
:100D8200F0C082C083C007C006C005C004C003C053
:100D920002C001C000C0D075D00030C0051214528C
:100DA200C2C030C105121492C2C1D0D0D000D0014D
:100DB200D002D003D004D005D006D007D083D08291
:100DC200D0F0D0E0D02132C021C0E0C0F0C082C05B
:100DD20083C007C006C005C004C003C002C001C072
:100DE20000C0D075D000900106E0FEA3E0FFC0076E
:100DF200C0068E828F83120069D006D007D0D0D071
:100E020000D001D002D003D004D005D006D007D044
:100E120083D082D0F0D0E0D02132C021C0E0C0F037
:100E2200C082C083C007C006C005C004C003C002A0
:100E3200C001C000C0D075D000900108E0FEA3E060
:100E4200FFC007C0068E828F83120069D006D007CA
:100E5200D0D0D000D001D002D003D004D005D0062B
:100E6200D007D083D082D0F0D0E0D02132C021C0D0
:100E7200E0C0F0C082C083C007C006C005C004C085
:100E820003C002C001C000C0D075D0009000FCE0D9
:100E9200FEA3E04E600E9000FCE0F8A3E0F583882C
:100EA20082120069D0D0D000D001D002D003D00489
:100EB200D005D006D007D083D082D0F0D0E0D021A8
:100EC200321210BE1202841202B280FB758200221C
:100ED200C0D075D00808B8000D09B900090ABA00D7
:100EE200050BBB00010CD0D032A2AFC2AFA808A93B
:100EF20009AA0AAB0BAC8A8588F092AF30F512745E
:100F0200012C600D08B8000909B900050ABA0001F0
:100F12000BC3EC9406FCE8FEE9FFC003C00275F0C7
:100F220077E8A4F8ADF075F077E9A42DF9E435F08F
:100F3200FD75F077EAA42DFAE435F0FD75F077EB54
:100F4200A42DFBE435F0FDEE29F9EF3AFAD0E03BAF
:100F5200FBD0E03DFD75F003ECA4FCE5F0C313FE0D
:100F6200EC13FC7F00EC28F8EE39F9EF3AFAEF3B8C
:100F7200FBEF3DFDC3ED13FDEB13FBEA13F5F0E9C7
:100F820013F583E813F582EB22A2AFC2AFA808A93A
:100F920009AA0AAB0BAC0C92AF75F030E8A4A8F02A
:100FA20075F030E9A428ADD0F582A8F075F030EAEA
:100FB200A48DD038ADD0F583A8F075F030EBA48DB8
:100FC200D038ADD0F9A8F075F030ECA48DD03889C6
:100FD200F02285822285832385F024F525120EEBEB
:100FE20085822685832785F028F529E52245234534
:100FF200244525700122A822A923AA24AB258526EF
:101002002A85272B85282C85292DE8494A4B60DB28
:10101200C003C002C001C000120EEBAC82AD83AEB1
:10102200F0FFD000D001D002D003ECC3952AFCED32
:10103200952BFDEE952CFEEF952DFFC3EC94E8ED7C
:101042009403EE9400EF940040A118B8FF0919B977
:10105200FF051ABAFF011B882289238A248B257473
:10106200E8252AF52A7403352BF52BE4352CF52CCB
:10107200E4352DF52D852A26852B27852C28852DCF
:031082002980873B
:10108600AE82AF83C374019EE49F40022200BF007C
:1010960005BE02022200C374039EFE74009FFFBEBB
:1010A6000004BF0001220000000000000000000E46
:1010B600BE00F30FBF00F52275A15575A1AA74F8FD
:1010C60055B94405F5B975A10090138812108575B8
:1010D6009E5D759D0074F055894402F58953C9EFEC
:1010E600758C06C28DD2A9D28CD2AF229000A2E016
:1010F600F58222AC82AD83AEF0FFC004C005C00607
:10110600C00790680075F08974091214E4AC82ADCA
:1011160083AEF0FFE58124FCF581EDC4CCC4540F09
:101126006CCC540FCC6CCCFDEEC454F04DFDEFC42A
:10113600CEC4540F6ECE540FCE6ECEFF8C028D03EE
:10114600C007C006C005C004740AC0E0E4C0E08A57
:10115600828B83121670AA8215811581D004D00560
:10116600D006D007C002740AC0E0E4C0E0C0E0C008
:10117600E08C828D838EF0EF1214E4AC82AD83AEE8
:10118600F0FFE58124FCF581D002BA0500400D0C84
:10119600BC00090DBD00050EBE00010FC29FD29E08
:1011A600C29DC2CDC2CC438780740F55894420F5B9
:1011B6008943C9A0C3E49CF58DD28EC299D29CD234
:1011C600AC9000A27401F022AF82A2AFE433FEC25B
:1011D600AF900100E0FD900101E0FCEDB5041020A8
:1011E600020DD2028F99EE6002D2AF758201229073
:1011F6000100E0FD0D53050F7B007C00900101E02E
:10120600FAEDB50235EE6002D2AF0BBB00010C90D1
:101216000005C007C006C005C004C003121085D073
:1012260003D004D005D006D0078B018C02C3E99405
:1012360020EA944E40C675820022900100E024B454
:10124600F582E43400F583EFF0900100EDF0EE60F6
:1012560002D2AF758201222002FD229000FEE02418
:1012660010FF9000FFE0FEEFC39EFF53070F8F8233
:10127600229000FEE02410FF9000FFE0FEEFC39EE8
:10128600540F601C9000FFE024A4F582E43400F5BE
:1012960083E0FF9000FFE0FE0E740F5EF08F822267
:1012A600758200229000A3E0F58222AC82AD83AE67
:1012B600F0FFC2C7D2C5D2C4C004C005C006C0076D
:1012C60090424075F00FE41214E4AC82E58124FCF0
:1012D600F581C3E49CF5C2D2ECD2AF9000A37401B1
:1012E600F022AF82A2AFE433FEC2AF900104E0FD6C
:1012F600900105E0FCEDB5041020030DD2038FC16B
:10130600EE6002D2AF75820122900104E0FD0D531A
:10131600050F7B007C00900105E0FAEDB50235EE85
:101326006002D2AF0BBB00010C900005C007C006DF
:10133600C005C004C003121085D003D004D005D068
:1013460006D0078B018C02C3E99420EA944E40C66E
:1013560075820022900104E024D4F582E43400F57D
:1013660083EFF0900104EDF0EE6002D2AF758201DA
:10137600222003FD22900102E02410FF900103E0E9
:10138600FEEFC39EFF53070F8F8222900102E024D7
:1013960010FF900103E0FEEFC39E540F601C900106
:1013A60003E024C4F582E43400F583E0FF900103F2
:0E13B600E0FE0E740F5EF08F82227582002220
:1013C4009000FEE0FF7E000FBF00010E7410C0E02D
:1013D400E4C0E08F828E83121602AE8215811581DD
:1013E4009000FFE0FFEEB50701229000FEE024A488
:1013F400F582E43400F583E599F09000FEEEF022E6
:1014040030024A900100E0FF900101E0FEEFB506D2
:1014140005A202C20222900101E024B4F582E43460
:1014240000F583E0F599900101E0FF7E000FBF0015
:10143400010E7410C0E0E4C0E08F828E83121602A5
:0E144400AE82AF8315811581900101EEF0227A
:10145200900102E0FF7E000FBF00010E7410C0E099
:10146200E4C0E08F828E83121602AE82158115814E
:10147200900103E0FFEEB5070122900102E024C4CF
:10148200F582E43400F583E5C1F0900102EEF0222A
:1014920030034A900104E0FF900105E0FEEFB5063B
:1014A20005A203C20322900105E024D4F582E434AC
:1014B20000F583E0F5C1900105E0FF7E000FBF005B
:1014C200010E7410C0E0E4C0E08F828E8312160217
:0E14D200AE82AF8315811581900105EEF022E8
:0114E00032D9
:0114E20032D7
:1014E400C018858118C082C083C0F0C0E07A007B38
:1014F400007E007F007D20A81808080808E6235411
:1015040001FCA81808E626F608E633F608E633F6E2
:1015140008E633F6EA2AFAEB33FBEE33FEEF33FF49
:10152400EC6003430201E51824FAF8C3EA96EB08D9
:1015340096EE0896EF0896401CE51824FAF8EAC3DC
:1015440096FAEB0896FBEE0896FEEF0896FFA818AD
:1015540008E64401F6DDA0A81808868208868308F8
:0A15640086F008E6851881D01822F1
:10156E0022AF82BF0200503EEF75F002A42406FDAA
:10157E00740135F0FE9000E4E0FBA3E0FC8D828E5A
:10158E0083EBF0ECA3F0BF00028005BF0118800BC7
:10159E009000E6E024FF9288D2A8229000E6E0FFB9
:1015AE0024FF928AD2AA22AF82BF02005028BF0027
:1015BE00028005BF01088004C2A88002C2AAEF758E
:1015CE00F002A42406FE740135F0FF8E828F837420
:0715DE006EF07415A3F0226A
:1015E60020F71430F6148883A88220F507E6A8832E
:1015F60075830022E280F7E49322E022C0188581F9
:1016060018AE82E583FF33E433FD6009C3E49EFB35
:10161600E49FFC80048E038F04E51824FCF808E69A
:1016260030E70FE51824FCF8C3E496FE08E496FFBD
:10163600800AE51824FCF88606088607C005C00659
:10164600C0078B828C83121670AE82AF831581150C
:1016560081D005ED600DC3E49EFCE49FFD8C828D78
:101666008380048E828F83D01822C018858118AE9D
:1016760082AF837D007C00E51824FCF808E623543D
:1016860001FB702FE51824FCF8E626F608E633F68B
:10169600E51824FCF8C3EE96EF08965011E51824D9
:1016A600FCF808E618C313C613C608F680050C8CAA
:1016B6000580C4E51824FCF8C3EE96EF0896400DA5
:1016C600E51824FCF8EEC396FEEF0896FFE518240D
:1016D600FCF808E618C313C613C608F68D041DECFD
:0D16E60070D18E828F83D018227582002271
:1016F30000000000000000002A2B2800000000006A
:1017030000000000000000000000000000000000D6
:101713002C9EB4A0A1A2A434A6A7A5AE362D37381B
:10172300271E1F20212223242526B333B62EB7B824
:101733009F8485868788898A8B8C8D8E8F909192E2
:10174300939495969798999A9B9C9D2F3130A3AD2E
:10175300350405060708090A0B0C0D0E0F101112AC
:10176300131415161718191A1B1C1DAFB1B0B500A9
:10177300120110010000000809125DC500010102F9
:101783000301090229000101008064090400000229
:1017930003010100092110010001227C00070581DA
:1017A3000309000A0705010309000A05010906A147
:1017B300018501050719E029E7150025019508753D
:1017C30001810295017508810395067508150026A8
:1017D300FF000507190029E78100050819012905FC
:1017E3001500250195057501910295017503910376
:1017F300C005010902A1010901A10085020509191A
:1018030001290315002501950375018102950175D1
:1018130005810305010930093109381581257F75D3
:101823000895038106C0C0040309041C0343004850
:101833000035003500780020006B00620064002052
:10184300006D006F00730016034300480035003538
:101853000078006400750069006E006F000E034499
:0B186300006500710069006E00670066
:06186E00C30E00000000A3
:0E187400000000000000000000000000000066
:011882000065
:02188300000063
:04188500000000005F
:04188900000000005B
:04188D006E156E1551
:00000001FF
